{
    "abi": [
        {
            "type": "constructor",
            "inputs": [
                {
                    "name": "_router",
                    "type": "address",
                    "internalType": "address"
                },
                {
                    "name": "_poolManager",
                    "type": "address",
                    "internalType": "address"
                },
                {
                    "name": "_permit2",
                    "type": "address",
                    "internalType": "address"
                },
                {
                    "name": "_positionManager",
                    "type": "address",
                    "internalType": "address"
                },
                {
                    "name": "_factory",
                    "type": "address",
                    "internalType": "address"
                }
            ],
            "stateMutability": "nonpayable"
        },
        {
            "type": "function",
            "name": "factory",
            "inputs": [],
            "outputs": [
                {
                    "name": "",
                    "type": "address",
                    "internalType": "contract IFactory"
                }
            ],
            "stateMutability": "view"
        },
        {
            "type": "function",
            "name": "initFreshWallet",
            "inputs": [],
            "outputs": [
                {
                    "name": "freshWallet",
                    "type": "address",
                    "internalType": "address"
                }
            ],
            "stateMutability": "nonpayable"
        },
        {
            "type": "function",
            "name": "initFreshWallet",
            "inputs": [
                {
                    "name": "_salt",
                    "type": "bytes32",
                    "internalType": "bytes32"
                }
            ],
            "outputs": [
                {
                    "name": "freshWallet",
                    "type": "address",
                    "internalType": "address"
                }
            ],
            "stateMutability": "nonpayable"
        },
        {
            "type": "function",
            "name": "permit2",
            "inputs": [],
            "outputs": [
                {
                    "name": "",
                    "type": "address",
                    "internalType": "contract IPermit2"
                }
            ],
            "stateMutability": "view"
        },
        {
            "type": "function",
            "name": "poolManager",
            "inputs": [],
            "outputs": [
                {
                    "name": "",
                    "type": "address",
                    "internalType": "contract IPoolManager"
                }
            ],
            "stateMutability": "view"
        },
        {
            "type": "function",
            "name": "positionManager",
            "inputs": [],
            "outputs": [
                {
                    "name": "",
                    "type": "address",
                    "internalType": "contract IPositionManager"
                }
            ],
            "stateMutability": "view"
        },
        {
            "type": "function",
            "name": "predictWalletAddress",
            "inputs": [
                {
                    "name": "_salt",
                    "type": "bytes32",
                    "internalType": "bytes32"
                }
            ],
            "outputs": [
                {
                    "name": "freshWallet",
                    "type": "address",
                    "internalType": "address"
                }
            ],
            "stateMutability": "view"
        },
        {
            "type": "function",
            "name": "router",
            "inputs": [],
            "outputs": [
                {
                    "name": "",
                    "type": "address",
                    "internalType": "contract IUniswapV4Router04"
                }
            ],
            "stateMutability": "view"
        },
        {
            "type": "function",
            "name": "swapAndTransfer",
            "inputs": [
                {
                    "name": "_poolKey",
                    "type": "tuple",
                    "internalType": "struct PoolKey",
                    "components": [
                        {
                            "name": "currency0",
                            "type": "address",
                            "internalType": "Currency"
                        },
                        {
                            "name": "currency1",
                            "type": "address",
                            "internalType": "Currency"
                        },
                        {
                            "name": "fee",
                            "type": "uint24",
                            "internalType": "uint24"
                        },
                        {
                            "name": "tickSpacing",
                            "type": "int24",
                            "internalType": "int24"
                        },
                        {
                            "name": "hooks",
                            "type": "address",
                            "internalType": "contract IHooks"
                        }
                    ]
                },
                {
                    "name": "_tokenForTransfer",
                    "type": "address",
                    "internalType": "address"
                },
                {
                    "name": "_to",
                    "type": "address",
                    "internalType": "address"
                },
                {
                    "name": "_amount",
                    "type": "uint256",
                    "internalType": "uint256"
                }
            ],
            "outputs": [],
            "stateMutability": "nonpayable"
        },
        {
            "type": "error",
            "name": "SafeERC20FailedOperation",
            "inputs": [
                {
                    "name": "token",
                    "type": "address",
                    "internalType": "address"
                }
            ]
        }
    ],
    "bytecode": {
        "object": "0x610120604052348015610010575f5ffd5b506040516116f03803806116f08339818101604052810190610032919061019f565b8473ffffffffffffffffffffffffffffffffffffffff1660808173ffffffffffffffffffffffffffffffffffffffff16815250508373ffffffffffffffffffffffffffffffffffffffff1660a08173ffffffffffffffffffffffffffffffffffffffff16815250508273ffffffffffffffffffffffffffffffffffffffff1660c08173ffffffffffffffffffffffffffffffffffffffff16815250508173ffffffffffffffffffffffffffffffffffffffff1660e08173ffffffffffffffffffffffffffffffffffffffff16815250508073ffffffffffffffffffffffffffffffffffffffff166101008173ffffffffffffffffffffffffffffffffffffffff16815250505050505050610216565b5f5ffd5b5f73ffffffffffffffffffffffffffffffffffffffff82169050919050565b5f61016e82610145565b9050919050565b61017e81610164565b8114610188575f5ffd5b50565b5f8151905061019981610175565b92915050565b5f5f5f5f5f60a086880312156101b8576101b7610141565b5b5f6101c58882890161018b565b95505060206101d68882890161018b565b94505060406101e78882890161018b565b93505060606101f88882890161018b565b92505060806102098882890161018b565b9150509295509295909350565b60805160a05160c05160e0516101005161147361027d5f395f81816101c80152818161028e01528181610767015261081901525f61033c01525f61026901525f61083d01525f81816104580152818161052c015281816105ad015261086101526114735ff3fe608060405234801561000f575f5ffd5b5060043610610091575f3560e01c80639ff0e279116100645780639ff0e2791461011f578063bda734c61461013b578063c45a01551461016b578063dc4c90d314610189578063f887ea40146101a757610091565b806304f1d3c71461009557806312261ee7146100c55780632e213070146100e3578063791b98bc14610101575b5f5ffd5b6100af60048036038101906100aa9190610ad9565b6101c5565b6040516100bc9190610b43565b60405180910390f35b6100cd610267565b6040516100da9190610bb7565b60405180910390f35b6100eb61028b565b6040516100f89190610b43565b60405180910390f35b61010961033a565b6040516101169190610bf0565b60405180910390f35b61013960048036038101906101349190610e4e565b61035e565b005b61015560048036038101906101509190610ad9565b610764565b6040516101629190610b43565b60405180910390f35b610173610817565b6040516101809190610ed3565b60405180910390f35b61019161083b565b60405161019e9190610f0c565b60405180910390f35b6101af61085f565b6040516101bc9190610f56565b60405180910390f35b5f7f000000000000000000000000000000000000000000000000000000000000000073ffffffffffffffffffffffffffffffffffffffff1663360d0fad30846040518363ffffffff1660e01b8152600401610221929190610f7e565b602060405180830381865afa15801561023c573d5f5f3e3d5ffd5b505050506040513d601f19601f820116820180604052508101906102609190610fb9565b9050919050565b7f000000000000000000000000000000000000000000000000000000000000000081565b5f7f000000000000000000000000000000000000000000000000000000000000000073ffffffffffffffffffffffffffffffffffffffff1663eebc8e193060405180602001604052805f8152506040518363ffffffff1660e01b81526004016102f5929190611044565b6020604051808303815f875af1158015610311573d5f5f3e3d5ffd5b505050506040513d601f19601f820116820180604052508101906103359190610fb9565b905090565b7f000000000000000000000000000000000000000000000000000000000000000081565b5f73ffffffffffffffffffffffffffffffffffffffff168273ffffffffffffffffffffffffffffffffffffffff16036103cc576040517f08c379a00000000000000000000000000000000000000000000000000000000081526004016103c3906110cc565b60405180910390fd5b5f5f8473ffffffffffffffffffffffffffffffffffffffff16866020015173ffffffffffffffffffffffffffffffffffffffff16036104db576001915061043530875f015173ffffffffffffffffffffffffffffffffffffffff1661088390919063ffffffff16565b9050855f015173ffffffffffffffffffffffffffffffffffffffff1663095ea7b37f0000000000000000000000000000000000000000000000000000000000000000836040518363ffffffff1660e01b81526004016104959291906110f9565b6020604051808303815f875af11580156104b1573d5f5f3e3d5ffd5b505050506040513d601f19601f820116820180604052508101906104d59190611155565b506105ab565b61050830876020015173ffffffffffffffffffffffffffffffffffffffff1661088390919063ffffffff16565b9050856020015173ffffffffffffffffffffffffffffffffffffffff1663095ea7b37f0000000000000000000000000000000000000000000000000000000000000000836040518363ffffffff1660e01b81526004016105699291906110f9565b6020604051808303815f875af1158015610585573d5f5f3e3d5ffd5b505050506040513d601f19601f820116820180604052508101906105a99190611155565b505b7f000000000000000000000000000000000000000000000000000000000000000073ffffffffffffffffffffffffffffffffffffffff1663b1a0d571825f858a5f67ffffffffffffffff81111561060557610604610c1d565b5b6040519080825280601f01601f1916602001820160405280156106375781602001600182028036833780820191505090505b5030603c4261064691906111ad565b6040518863ffffffff1660e01b815260040161066897969594939291906112ec565b6020604051808303815f875af1158015610684573d5f5f3e3d5ffd5b505050506040513d601f19601f820116820180604052508101906106a89190611397565b505f8573ffffffffffffffffffffffffffffffffffffffff166370a08231306040518263ffffffff1660e01b81526004016106e39190610b43565b602060405180830381865afa1580156106fe573d5f5f3e3d5ffd5b505050506040513d601f19601f8201168201806040525081019061072291906113d6565b905083811015610730578093505b61075b85858873ffffffffffffffffffffffffffffffffffffffff166109489092919063ffffffff16565b50505050505050565b5f7f000000000000000000000000000000000000000000000000000000000000000073ffffffffffffffffffffffffffffffffffffffff1663693c86413060405180602001604052805f815250856040518463ffffffff1660e01b81526004016107d093929190611401565b6020604051808303815f875af11580156107ec573d5f5f3e3d5ffd5b505050506040513d601f19601f820116820180604052508101906108109190610fb9565b9050919050565b7f000000000000000000000000000000000000000000000000000000000000000081565b7f000000000000000000000000000000000000000000000000000000000000000081565b7f000000000000000000000000000000000000000000000000000000000000000081565b5f6108a38373ffffffffffffffffffffffffffffffffffffffff166109c7565b156108c7578173ffffffffffffffffffffffffffffffffffffffff16319050610942565b8273ffffffffffffffffffffffffffffffffffffffff166370a08231836040518263ffffffff1660e01b81526004016109009190610b43565b602060405180830381865afa15801561091b573d5f5f3e3d5ffd5b505050506040513d601f19601f8201168201806040525081019061093f91906113d6565b90505b92915050565b6109c2838473ffffffffffffffffffffffffffffffffffffffff1663a9059cbb858560405160240161097b9291906110f9565b604051602081830303815290604052915060e01b6020820180517bffffffffffffffffffffffffffffffffffffffffffffffffffffffff83818316178352505050506109fe565b505050565b5f5f73ffffffffffffffffffffffffffffffffffffffff168273ffffffffffffffffffffffffffffffffffffffff16149050919050565b5f5f60205f8451602086015f885af180610a1d576040513d5f823e3d81fd5b3d92505f519150505f8214610a36576001811415610a51565b5f8473ffffffffffffffffffffffffffffffffffffffff163b145b15610a9357836040517f5274afe7000000000000000000000000000000000000000000000000000000008152600401610a8a9190610b43565b60405180910390fd5b50505050565b5f604051905090565b5f5ffd5b5f819050919050565b610ab881610aa6565b8114610ac2575f5ffd5b50565b5f81359050610ad381610aaf565b92915050565b5f60208284031215610aee57610aed610aa2565b5b5f610afb84828501610ac5565b91505092915050565b5f73ffffffffffffffffffffffffffffffffffffffff82169050919050565b5f610b2d82610b04565b9050919050565b610b3d81610b23565b82525050565b5f602082019050610b565f830184610b34565b92915050565b5f819050919050565b5f610b7f610b7a610b7584610b04565b610b5c565b610b04565b9050919050565b5f610b9082610b65565b9050919050565b5f610ba182610b86565b9050919050565b610bb181610b97565b82525050565b5f602082019050610bca5f830184610ba8565b92915050565b5f610bda82610b86565b9050919050565b610bea81610bd0565b82525050565b5f602082019050610c035f830184610be1565b92915050565b5f5ffd5b5f601f19601f8301169050919050565b7f4e487b71000000000000000000000000000000000000000000000000000000005f52604160045260245ffd5b610c5382610c0d565b810181811067ffffffffffffffff82111715610c7257610c71610c1d565b5b80604052505050565b5f610c84610a99565b9050610c908282610c4a565b919050565b610c9e81610b23565b8114610ca8575f5ffd5b50565b5f81359050610cb981610c95565b92915050565b5f62ffffff82169050919050565b610cd681610cbf565b8114610ce0575f5ffd5b50565b5f81359050610cf181610ccd565b92915050565b5f8160020b9050919050565b610d0c81610cf7565b8114610d16575f5ffd5b50565b5f81359050610d2781610d03565b92915050565b5f610d3782610b23565b9050919050565b610d4781610d2d565b8114610d51575f5ffd5b50565b5f81359050610d6281610d3e565b92915050565b5f60a08284031215610d7d57610d7c610c09565b5b610d8760a0610c7b565b90505f610d9684828501610cab565b5f830152506020610da984828501610cab565b6020830152506040610dbd84828501610ce3565b6040830152506060610dd184828501610d19565b6060830152506080610de584828501610d54565b60808301525092915050565b610dfa81610b23565b8114610e04575f5ffd5b50565b5f81359050610e1581610df1565b92915050565b5f819050919050565b610e2d81610e1b565b8114610e37575f5ffd5b50565b5f81359050610e4881610e24565b92915050565b5f5f5f5f6101008587031215610e6757610e66610aa2565b5b5f610e7487828801610d68565b94505060a0610e8587828801610e07565b93505060c0610e9687828801610e07565b92505060e0610ea787828801610e3a565b91505092959194509250565b5f610ebd82610b86565b9050919050565b610ecd81610eb3565b82525050565b5f602082019050610ee65f830184610ec4565b92915050565b5f610ef682610b86565b9050919050565b610f0681610eec565b82525050565b5f602082019050610f1f5f830184610efd565b92915050565b5f610f2f82610b65565b9050919050565b5f610f4082610f25565b9050919050565b610f5081610f36565b82525050565b5f602082019050610f695f830184610f47565b92915050565b610f7881610aa6565b82525050565b5f604082019050610f915f830185610b34565b610f9e6020830184610f6f565b9392505050565b5f81519050610fb381610df1565b92915050565b5f60208284031215610fce57610fcd610aa2565b5b5f610fdb84828501610fa5565b91505092915050565b5f81519050919050565b5f82825260208201905092915050565b8281835e5f83830152505050565b5f61101682610fe4565b6110208185610fee565b9350611030818560208601610ffe565b61103981610c0d565b840191505092915050565b5f6040820190506110575f830185610b34565b8181036020830152611069818461100c565b90509392505050565b5f82825260208201905092915050565b7f5a65726f20726563697069656e740000000000000000000000000000000000005f82015250565b5f6110b6600e83611072565b91506110c182611082565b602082019050919050565b5f6020820190508181035f8301526110e3816110aa565b9050919050565b6110f381610e1b565b82525050565b5f60408201905061110c5f830185610b34565b61111960208301846110ea565b9392505050565b5f8115159050919050565b61113481611120565b811461113e575f5ffd5b50565b5f8151905061114f8161112b565b92915050565b5f6020828403121561116a57611169610aa2565b5b5f61117784828501611141565b91505092915050565b7f4e487b71000000000000000000000000000000000000000000000000000000005f52601160045260245ffd5b5f6111b782610e1b565b91506111c283610e1b565b92508282019050808211156111da576111d9611180565b5b92915050565b5f819050919050565b5f6112036111fe6111f9846111e0565b610b5c565b610e1b565b9050919050565b611213816111e9565b82525050565b61122281611120565b82525050565b5f61123282610b86565b9050919050565b61124281611228565b82525050565b61125181610cbf565b82525050565b61126081610cf7565b82525050565b5f61127082610b86565b9050919050565b61128081611266565b82525050565b60a082015f82015161129a5f850182611239565b5060208201516112ad6020850182611239565b5060408201516112c06040850182611248565b5060608201516112d36060850182611257565b5060808201516112e66080850182611277565b50505050565b5f610160820190506113005f83018a6110ea565b61130d602083018961120a565b61131a6040830188611219565b6113276060830187611286565b81810361010083015261133a818661100c565b905061134a610120830185610b34565b6113586101408301846110ea565b98975050505050505050565b5f819050919050565b61137681611364565b8114611380575f5ffd5b50565b5f815190506113918161136d565b92915050565b5f602082840312156113ac576113ab610aa2565b5b5f6113b984828501611383565b91505092915050565b5f815190506113d081610e24565b92915050565b5f602082840312156113eb576113ea610aa2565b5b5f6113f8848285016113c2565b91505092915050565b5f6060820190506114145f830186610b34565b8181036020830152611426818561100c565b90506114356040830184610f6f565b94935050505056fea264697066735822122063808bd42a2b0f7b8c75e4375507d77caf2c2983687c76a13ae4b6f769f789ab64736f6c63430008230033",
        "linkReferences": {}
    },
    "methodIdentifiers": {
        "factory()": "c45a0155",
        "initFreshWallet()": "2e213070",
        "initFreshWallet(bytes32)": "bda734c6",
        "permit2()": "12261ee7",
        "poolManager()": "dc4c90d3",
        "positionManager()": "791b98bc",
        "predictWalletAddress(bytes32)": "04f1d3c7",
        "router()": "f887ea40",
        "swapAndTransfer((address,address,uint24,int24,address),address,address,uint256)": "9ff0e279"
    },
    "id": 73
}